{
  "address": "0x4f18DD24820e0947645d96880425e88F4Eb2Fd00",
  "abi": [
    {
      "inputs": [
        {
          "internalType": "string",
          "name": "name",
          "type": "string"
        },
        {
          "internalType": "string",
          "name": "symbol",
          "type": "string"
        },
        {
          "internalType": "uint8",
          "name": "decimals",
          "type": "uint8"
        }
      ],
      "stateMutability": "nonpayable",
      "type": "constructor"
    },
    {
      "anonymous": false,
      "inputs": [
        {
          "indexed": true,
          "internalType": "address",
          "name": "owner",
          "type": "address"
        },
        {
          "indexed": true,
          "internalType": "address",
          "name": "spender",
          "type": "address"
        },
        {
          "indexed": false,
          "internalType": "uint256",
          "name": "value",
          "type": "uint256"
        }
      ],
      "name": "Approval",
      "type": "event"
    },
    {
      "anonymous": false,
      "inputs": [
        {
          "indexed": false,
          "internalType": "address",
          "name": "account",
          "type": "address"
        }
      ],
      "name": "Paused",
      "type": "event"
    },
    {
      "anonymous": false,
      "inputs": [
        {
          "indexed": true,
          "internalType": "bytes32",
          "name": "role",
          "type": "bytes32"
        },
        {
          "indexed": true,
          "internalType": "bytes32",
          "name": "previousAdminRole",
          "type": "bytes32"
        },
        {
          "indexed": true,
          "internalType": "bytes32",
          "name": "newAdminRole",
          "type": "bytes32"
        }
      ],
      "name": "RoleAdminChanged",
      "type": "event"
    },
    {
      "anonymous": false,
      "inputs": [
        {
          "indexed": true,
          "internalType": "bytes32",
          "name": "role",
          "type": "bytes32"
        },
        {
          "indexed": true,
          "internalType": "address",
          "name": "account",
          "type": "address"
        },
        {
          "indexed": true,
          "internalType": "address",
          "name": "sender",
          "type": "address"
        }
      ],
      "name": "RoleGranted",
      "type": "event"
    },
    {
      "anonymous": false,
      "inputs": [
        {
          "indexed": true,
          "internalType": "bytes32",
          "name": "role",
          "type": "bytes32"
        },
        {
          "indexed": true,
          "internalType": "address",
          "name": "account",
          "type": "address"
        },
        {
          "indexed": true,
          "internalType": "address",
          "name": "sender",
          "type": "address"
        }
      ],
      "name": "RoleRevoked",
      "type": "event"
    },
    {
      "anonymous": false,
      "inputs": [
        {
          "indexed": true,
          "internalType": "address",
          "name": "from",
          "type": "address"
        },
        {
          "indexed": true,
          "internalType": "address",
          "name": "to",
          "type": "address"
        },
        {
          "indexed": false,
          "internalType": "uint256",
          "name": "value",
          "type": "uint256"
        }
      ],
      "name": "Transfer",
      "type": "event"
    },
    {
      "anonymous": false,
      "inputs": [
        {
          "indexed": false,
          "internalType": "address",
          "name": "account",
          "type": "address"
        }
      ],
      "name": "Unpaused",
      "type": "event"
    },
    {
      "inputs": [],
      "name": "DEFAULT_ADMIN_ROLE",
      "outputs": [
        {
          "internalType": "bytes32",
          "name": "",
          "type": "bytes32"
        }
      ],
      "stateMutability": "view",
      "type": "function"
    },
    {
      "inputs": [],
      "name": "DOMAIN_SEPARATOR",
      "outputs": [
        {
          "internalType": "bytes32",
          "name": "",
          "type": "bytes32"
        }
      ],
      "stateMutability": "view",
      "type": "function"
    },
    {
      "inputs": [],
      "name": "MINTER_ROLE",
      "outputs": [
        {
          "internalType": "bytes32",
          "name": "",
          "type": "bytes32"
        }
      ],
      "stateMutability": "view",
      "type": "function"
    },
    {
      "inputs": [],
      "name": "PAUSER_ROLE",
      "outputs": [
        {
          "internalType": "bytes32",
          "name": "",
          "type": "bytes32"
        }
      ],
      "stateMutability": "view",
      "type": "function"
    },
    {
      "inputs": [
        {
          "internalType": "address",
          "name": "account",
          "type": "address"
        }
      ],
      "name": "accontSuspended",
      "outputs": [
        {
          "internalType": "bool",
          "name": "",
          "type": "bool"
        }
      ],
      "stateMutability": "view",
      "type": "function"
    },
    {
      "inputs": [
        {
          "internalType": "address",
          "name": "owner",
          "type": "address"
        },
        {
          "internalType": "address",
          "name": "spender",
          "type": "address"
        }
      ],
      "name": "allowance",
      "outputs": [
        {
          "internalType": "uint256",
          "name": "",
          "type": "uint256"
        }
      ],
      "stateMutability": "view",
      "type": "function"
    },
    {
      "inputs": [
        {
          "internalType": "address",
          "name": "spender",
          "type": "address"
        },
        {
          "internalType": "uint256",
          "name": "amount",
          "type": "uint256"
        }
      ],
      "name": "approve",
      "outputs": [
        {
          "internalType": "bool",
          "name": "",
          "type": "bool"
        }
      ],
      "stateMutability": "nonpayable",
      "type": "function"
    },
    {
      "inputs": [
        {
          "internalType": "address",
          "name": "account",
          "type": "address"
        }
      ],
      "name": "balanceOf",
      "outputs": [
        {
          "internalType": "uint256",
          "name": "",
          "type": "uint256"
        }
      ],
      "stateMutability": "view",
      "type": "function"
    },
    {
      "inputs": [
        {
          "internalType": "uint256",
          "name": "amount",
          "type": "uint256"
        }
      ],
      "name": "burn",
      "outputs": [],
      "stateMutability": "nonpayable",
      "type": "function"
    },
    {
      "inputs": [
        {
          "internalType": "address",
          "name": "account",
          "type": "address"
        },
        {
          "internalType": "uint256",
          "name": "amount",
          "type": "uint256"
        }
      ],
      "name": "burnFrom",
      "outputs": [],
      "stateMutability": "nonpayable",
      "type": "function"
    },
    {
      "inputs": [],
      "name": "decimals",
      "outputs": [
        {
          "internalType": "uint8",
          "name": "",
          "type": "uint8"
        }
      ],
      "stateMutability": "view",
      "type": "function"
    },
    {
      "inputs": [
        {
          "internalType": "address",
          "name": "spender",
          "type": "address"
        },
        {
          "internalType": "uint256",
          "name": "subtractedValue",
          "type": "uint256"
        }
      ],
      "name": "decreaseAllowance",
      "outputs": [
        {
          "internalType": "bool",
          "name": "",
          "type": "bool"
        }
      ],
      "stateMutability": "nonpayable",
      "type": "function"
    },
    {
      "inputs": [
        {
          "internalType": "bytes32",
          "name": "role",
          "type": "bytes32"
        }
      ],
      "name": "getRoleAdmin",
      "outputs": [
        {
          "internalType": "bytes32",
          "name": "",
          "type": "bytes32"
        }
      ],
      "stateMutability": "view",
      "type": "function"
    },
    {
      "inputs": [
        {
          "internalType": "bytes32",
          "name": "role",
          "type": "bytes32"
        },
        {
          "internalType": "uint256",
          "name": "index",
          "type": "uint256"
        }
      ],
      "name": "getRoleMember",
      "outputs": [
        {
          "internalType": "address",
          "name": "",
          "type": "address"
        }
      ],
      "stateMutability": "view",
      "type": "function"
    },
    {
      "inputs": [
        {
          "internalType": "bytes32",
          "name": "role",
          "type": "bytes32"
        }
      ],
      "name": "getRoleMemberCount",
      "outputs": [
        {
          "internalType": "uint256",
          "name": "",
          "type": "uint256"
        }
      ],
      "stateMutability": "view",
      "type": "function"
    },
    {
      "inputs": [
        {
          "internalType": "bytes32",
          "name": "role",
          "type": "bytes32"
        },
        {
          "internalType": "address",
          "name": "account",
          "type": "address"
        }
      ],
      "name": "grantRole",
      "outputs": [],
      "stateMutability": "nonpayable",
      "type": "function"
    },
    {
      "inputs": [
        {
          "internalType": "bytes32",
          "name": "role",
          "type": "bytes32"
        },
        {
          "internalType": "address",
          "name": "account",
          "type": "address"
        }
      ],
      "name": "hasRole",
      "outputs": [
        {
          "internalType": "bool",
          "name": "",
          "type": "bool"
        }
      ],
      "stateMutability": "view",
      "type": "function"
    },
    {
      "inputs": [
        {
          "internalType": "address",
          "name": "spender",
          "type": "address"
        },
        {
          "internalType": "uint256",
          "name": "addedValue",
          "type": "uint256"
        }
      ],
      "name": "increaseAllowance",
      "outputs": [
        {
          "internalType": "bool",
          "name": "",
          "type": "bool"
        }
      ],
      "stateMutability": "nonpayable",
      "type": "function"
    },
    {
      "inputs": [
        {
          "internalType": "address",
          "name": "to",
          "type": "address"
        },
        {
          "internalType": "uint256",
          "name": "amount",
          "type": "uint256"
        }
      ],
      "name": "mint",
      "outputs": [],
      "stateMutability": "nonpayable",
      "type": "function"
    },
    {
      "inputs": [],
      "name": "name",
      "outputs": [
        {
          "internalType": "string",
          "name": "",
          "type": "string"
        }
      ],
      "stateMutability": "view",
      "type": "function"
    },
    {
      "inputs": [
        {
          "internalType": "address",
          "name": "owner",
          "type": "address"
        }
      ],
      "name": "nonces",
      "outputs": [
        {
          "internalType": "uint256",
          "name": "",
          "type": "uint256"
        }
      ],
      "stateMutability": "view",
      "type": "function"
    },
    {
      "inputs": [],
      "name": "pause",
      "outputs": [],
      "stateMutability": "nonpayable",
      "type": "function"
    },
    {
      "inputs": [],
      "name": "paused",
      "outputs": [
        {
          "internalType": "bool",
          "name": "",
          "type": "bool"
        }
      ],
      "stateMutability": "view",
      "type": "function"
    },
    {
      "inputs": [
        {
          "internalType": "address",
          "name": "owner",
          "type": "address"
        },
        {
          "internalType": "address",
          "name": "spender",
          "type": "address"
        },
        {
          "internalType": "uint256",
          "name": "value",
          "type": "uint256"
        },
        {
          "internalType": "uint256",
          "name": "deadline",
          "type": "uint256"
        },
        {
          "internalType": "uint8",
          "name": "v",
          "type": "uint8"
        },
        {
          "internalType": "bytes32",
          "name": "r",
          "type": "bytes32"
        },
        {
          "internalType": "bytes32",
          "name": "s",
          "type": "bytes32"
        }
      ],
      "name": "permit",
      "outputs": [],
      "stateMutability": "nonpayable",
      "type": "function"
    },
    {
      "inputs": [
        {
          "internalType": "bytes32",
          "name": "role",
          "type": "bytes32"
        },
        {
          "internalType": "address",
          "name": "account",
          "type": "address"
        }
      ],
      "name": "renounceRole",
      "outputs": [],
      "stateMutability": "nonpayable",
      "type": "function"
    },
    {
      "inputs": [
        {
          "internalType": "bytes32",
          "name": "role",
          "type": "bytes32"
        },
        {
          "internalType": "address",
          "name": "account",
          "type": "address"
        }
      ],
      "name": "revokeRole",
      "outputs": [],
      "stateMutability": "nonpayable",
      "type": "function"
    },
    {
      "inputs": [
        {
          "internalType": "address",
          "name": "account",
          "type": "address"
        }
      ],
      "name": "setAccountSuspend",
      "outputs": [],
      "stateMutability": "nonpayable",
      "type": "function"
    },
    {
      "inputs": [
        {
          "internalType": "bytes4",
          "name": "interfaceId",
          "type": "bytes4"
        }
      ],
      "name": "supportsInterface",
      "outputs": [
        {
          "internalType": "bool",
          "name": "",
          "type": "bool"
        }
      ],
      "stateMutability": "view",
      "type": "function"
    },
    {
      "inputs": [],
      "name": "symbol",
      "outputs": [
        {
          "internalType": "string",
          "name": "",
          "type": "string"
        }
      ],
      "stateMutability": "view",
      "type": "function"
    },
    {
      "inputs": [],
      "name": "totalSupply",
      "outputs": [
        {
          "internalType": "uint256",
          "name": "",
          "type": "uint256"
        }
      ],
      "stateMutability": "view",
      "type": "function"
    },
    {
      "inputs": [
        {
          "internalType": "address",
          "name": "to",
          "type": "address"
        },
        {
          "internalType": "uint256",
          "name": "amount",
          "type": "uint256"
        }
      ],
      "name": "transfer",
      "outputs": [
        {
          "internalType": "bool",
          "name": "",
          "type": "bool"
        }
      ],
      "stateMutability": "nonpayable",
      "type": "function"
    },
    {
      "inputs": [
        {
          "internalType": "address",
          "name": "from",
          "type": "address"
        },
        {
          "internalType": "address",
          "name": "to",
          "type": "address"
        },
        {
          "internalType": "uint256",
          "name": "amount",
          "type": "uint256"
        }
      ],
      "name": "transferFrom",
      "outputs": [
        {
          "internalType": "bool",
          "name": "",
          "type": "bool"
        }
      ],
      "stateMutability": "nonpayable",
      "type": "function"
    },
    {
      "inputs": [],
      "name": "unpause",
      "outputs": [],
      "stateMutability": "nonpayable",
      "type": "function"
    },
    {
      "inputs": [
        {
          "internalType": "address",
          "name": "account",
          "type": "address"
        }
      ],
      "name": "unsetAccountSuspend",
      "outputs": [],
      "stateMutability": "nonpayable",
      "type": "function"
    }
  ],
  "transactionHash": "0x0e12f8dcc5976f3bc515ddd26519dc5ff8635884f0161b3cf166419dbcae2ddf",
  "args": [
    "PASS",
    "PASS",
    18
  ],
  "solcInputHash": "d36de01daaec3041106c91d4e0d1d271",
  "bytecode": "0x6101806040527f6e71edae12b1b97f4d1f60370fef10105fa2faae0126114a169c64845d6126c9610140523480156200003757600080fd5b5060405162002b6d38038062002b6d8339810160408190526200005a91620004df565b8280604051806040016040528060018152602001603160f81b815250858581818160059080519060200190620000929291906200038e565b508051620000a89060069060208401906200038e565b50506007805460ff1916905550620000cb6000620000c5620001c1565b620001c5565b620000fa7f9f2df0fed2c77648de5860a4cc508cd0818c85b8b8a1ab4ceeef8d981c8956a6620000c5620001c1565b620001297f65d7a28e3265b37a6474929f336521b332c1681b933f6cb9f3376673440d862a620000c5620001c1565b5050815160208084019190912082519183019190912060e08290526101008190524660a0527f8b73c3c69bb8fe3d512ecc4cf759cc79239f7b179b0ffacaa9a75d522b39400f6200017c818484620001d5565b6080523060601b60c05261012052505050505060f81b7fff00000000000000000000000000000000000000000000000000000000000000166101605250620005df9050565b3390565b620001d1828262000211565b5050565b60008383834630604051602001620001f295949392919062000560565b6040516020818303038152906040528051906020012090509392505050565b6200022882826200025460201b62000aea1760201c565b60008281526001602090815260409091206200024f91839062000b6f620002de821b17901c565b505050565b620002608282620002fe565b620001d1576000828152602081815260408083206001600160a01b03851684529091529020805460ff191660011790556200029a620001c1565b6001600160a01b0316816001600160a01b0316837f2f8788117e7eff1d82e926ec794901d17c78024a50270940304540a733656f0d60405160405180910390a45050565b6000620002f5836001600160a01b03841662000327565b90505b92915050565b6000918252602082815260408084206001600160a01b0393909316845291905290205460ff1690565b600062000335838362000376565b6200036d57508154600181810184556000848152602080822090930184905584548482528286019093526040902091909155620002f8565b506000620002f8565b60009081526001919091016020526040902054151590565b8280546200039c906200058c565b90600052602060002090601f016020900481019282620003c057600085556200040b565b82601f10620003db57805160ff19168380011785556200040b565b828001600101855582156200040b579182015b828111156200040b578251825591602001919060010190620003ee565b50620004199291506200041d565b5090565b5b808211156200041957600081556001016200041e565b600082601f83011262000445578081fd5b81516001600160401b0380821115620004625762000462620005c9565b6040516020601f8401601f19168201810183811183821017156200048a576200048a620005c9565b6040528382528584018101871015620004a1578485fd5b8492505b83831015620004c45785830181015182840182015291820191620004a5565b83831115620004d557848185840101525b5095945050505050565b600080600060608486031215620004f4578283fd5b83516001600160401b03808211156200050b578485fd5b620005198783880162000434565b945060208601519150808211156200052f578384fd5b506200053e8682870162000434565b925050604084015160ff8116811462000555578182fd5b809150509250925092565b9485526020850193909352604084019190915260608301526001600160a01b0316608082015260a00190565b600281046001821680620005a157607f821691505b60208210811415620005c357634e487b7160e01b600052602260045260246000fd5b50919050565b634e487b7160e01b600052604160045260246000fd5b60805160a05160c05160601c60e0516101005161012051610140516101605160f81c6125226200064b60003960006105bc0152600061095501526000610edf01526000610f2101526000610f0001526000610e6201526000610e8c01526000610eb601526125226000f3fe608060405234801561001057600080fd5b50600436106102065760003560e01c806379cc67901161011a578063a6988e1a116100ad578063d53913931161007c578063d53913931461041b578063d547741f14610423578063dd62ed3e14610436578063e63ab1e914610449578063e75bd4651461045157610206565b8063a6988e1a146103cf578063a9059cbb146103e2578063ca15c873146103f5578063d505accf1461040857610206565b806391d14854116100e957806391d148541461039957806395d89b41146103ac578063a217fddf146103b4578063a457c2d7146103bc57610206565b806379cc67901461034b5780637ecebe001461035e5780638456cb59146103715780639010d07c1461037957610206565b80633644e5151161019d57806340c10f191161016c57806340c10f19146102f757806342966c681461030a578063463004b21461031d5780635c975abb1461033057806370a082311461033857610206565b80633644e515146102c157806336568abe146102c957806339509351146102dc5780633f4ba83a146102ef57610206565b806323b872dd116101d957806323b872dd14610271578063248a9ca3146102845780632f2ff15d14610297578063313ce567146102ac57610206565b806301ffc9a71461020b57806306fdde0314610234578063095ea7b31461024957806318160ddd1461025c575b600080fd5b61021e610219366004611b32565b610464565b60405161022b9190611bfe565b60405180910390f35b61023c610491565b60405161022b9190611c90565b61021e610257366004611aae565b610524565b610264610548565b60405161022b9190611c09565b61021e61027f366004611a02565b61054e565b610264610292366004611ad7565b61057c565b6102aa6102a5366004611aef565b610591565b005b6102b46105ba565b60405161022b91906123e2565b6102646105de565b6102aa6102d7366004611aef565b6105ed565b61021e6102ea366004611aae565b61063c565b6102aa610688565b6102aa610305366004611aae565b6106c8565b6102aa610318366004611ad7565b61071a565b6102aa61032b3660046119b6565b61072e565b61021e610788565b6102646103463660046119b6565b610791565b6102aa610359366004611aae565b6107ac565b61026461036c3660046119b6565b6107c8565b6102aa6107e9565b61038c610387366004611b11565b610827565b60405161022b9190611bea565b61021e6103a7366004611aef565b610846565b61023c61086f565b61026461087e565b61021e6103ca366004611aae565b610883565b61021e6103dd3660046119b6565b6108e4565b61021e6103f0366004611aae565b610902565b610264610403366004611ad7565b61091a565b6102aa610416366004611a3d565b610931565b610264610a13565b6102aa610431366004611aef565b610a37565b6102646104443660046119d0565b610a56565b610264610a81565b6102aa61045f3660046119b6565b610a93565b60006001600160e01b03198216635a05180f60e01b1480610489575061048982610b84565b90505b919050565b6060600580546104a090612481565b80601f01602080910402602001604051908101604052809291908181526020018280546104cc90612481565b80156105195780601f106104ee57610100808354040283529160200191610519565b820191906000526020600020905b8154815290600101906020018083116104fc57829003601f168201915b505050505090505b90565b60008061052f610ba9565b905061053c818585610bad565b60019150505b92915050565b60045490565b600080610559610ba9565b9050610566858285610c61565b610571858585610cab565b506001949350505050565b60009081526020819052604090206001015490565b61059a8261057c565b6105ab816105a6610ba9565b610dcf565b6105b58383610e33565b505050565b7f000000000000000000000000000000000000000000000000000000000000000090565b60006105e8610e55565b905090565b6105f5610ba9565b6001600160a01b0316816001600160a01b03161461062e5760405162461bcd60e51b815260040161062590612312565b60405180910390fd5b6106388282610f4c565b5050565b600080610647610ba9565b6001600160a01b0380821660009081526003602090815260408083209389168352929052205490915061053c90829086906106839087906123f0565b610bad565b6106a26000805160206124cd8339815191526103a7610ba9565b6106be5760405162461bcd60e51b815260040161062590611e80565b6106c6610f6e565b565b6106f47f9f2df0fed2c77648de5860a4cc508cd0818c85b8b8a1ab4ceeef8d981c8956a66103a7610ba9565b6107105760405162461bcd60e51b815260040161062590612121565b6106388282610fdc565b61072b610725610ba9565b826110a4565b50565b6107486000805160206124cd8339815191526103a7610ba9565b6107645760405162461bcd60e51b815260040161062590611d72565b6001600160a01b03166000908152600960205260409020805460ff19166001179055565b60075460ff1690565b6001600160a01b031660009081526002602052604090205490565b6107be826107b8610ba9565b83610c61565b61063882826110a4565b6001600160a01b038116600090815260086020526040812061048990611195565b6108036000805160206124cd8339815191526103a7610ba9565b61081f5760405162461bcd60e51b815260040161062590612241565b6106c6611199565b600082815260016020526040812061083f90836111f4565b9392505050565b6000918252602082815260408084206001600160a01b0393909316845291905290205460ff1690565b6060600680546104a090612481565b600081565b60008061088e610ba9565b6001600160a01b03808216600090815260036020908152604080832093891683529290522054909150838110156108d75760405162461bcd60e51b8152600401610625906122cd565b6105718286868403610bad565b6001600160a01b031660009081526009602052604090205460ff1690565b60008061090d610ba9565b905061053c818585610cab565b600081815260016020526040812061048990611200565b834211156109515760405162461bcd60e51b815260040161062590611f56565b60007f00000000000000000000000000000000000000000000000000000000000000008888886109808c61120b565b8960405160200161099696959493929190611c12565b60405160208183030381529060405280519060200120905060006109b98261123d565b905060006109c982878787611250565b9050896001600160a01b0316816001600160a01b0316146109fc5760405162461bcd60e51b8152600401610625906120ea565b610a078a8a8a610bad565b50505050505050505050565b7f9f2df0fed2c77648de5860a4cc508cd0818c85b8b8a1ab4ceeef8d981c8956a681565b610a408261057c565b610a4c816105a6610ba9565b6105b58383610f4c565b6001600160a01b03918216600090815260036020908152604080832093909416825291909152205490565b6000805160206124cd83398151915281565b610aad6000805160206124cd8339815191526103a7610ba9565b610ac95760405162461bcd60e51b815260040161062590612015565b6001600160a01b03166000908152600960205260409020805460ff19169055565b610af48282610846565b610638576000828152602081815260408083206001600160a01b03851684529091529020805460ff19166001179055610b2b610ba9565b6001600160a01b0316816001600160a01b0316837f2f8788117e7eff1d82e926ec794901d17c78024a50270940304540a733656f0d60405160405180910390a45050565b600061083f836001600160a01b038416611278565b60006001600160e01b03198216637965db0b60e01b14806104895750610489826112c2565b3390565b6001600160a01b038316610bd35760405162461bcd60e51b8152600401610625906121fd565b6001600160a01b038216610bf95760405162461bcd60e51b815260040161062590611edd565b6001600160a01b0380841660008181526003602090815260408083209487168084529490915290819020849055517f8c5be1e5ebec7d5bd14f71427d1e84f3dd0314c0f7b2291e5b200ac8c7c3b92590610c54908590611c09565b60405180910390a3505050565b6000610c6d8484610a56565b90506000198114610ca55781811015610c985760405162461bcd60e51b815260040161062590611f1f565b610ca58484848403610bad565b50505050565b6001600160a01b038316610cd15760405162461bcd60e51b8152600401610625906121b8565b6001600160a01b038216610cf75760405162461bcd60e51b815260040161062590611d2f565b610d028383836112db565b6001600160a01b03831660009081526002602052604090205481811015610d3b5760405162461bcd60e51b815260040161062590611f8d565b6001600160a01b03808516600090815260026020526040808220858503905591851681529081208054849290610d729084906123f0565b92505081905550826001600160a01b0316846001600160a01b03167fddf252ad1be2c89b69c2b068fc378daa952ba7f163c4a11628f55a4df523b3ef84604051610dbc9190611c09565b60405180910390a3610ca58484846112e6565b610dd98282610846565b61063857610df1816001600160a01b0316601461132a565b610dfc83602061132a565b604051602001610e0d929190611b75565b60408051601f198184030181529082905262461bcd60e51b825261062591600401611c90565b610e3d8282610aea565b60008281526001602052604090206105b59082610b6f565b6000306001600160a01b037f000000000000000000000000000000000000000000000000000000000000000016148015610eae57507f000000000000000000000000000000000000000000000000000000000000000046145b15610eda57507f0000000000000000000000000000000000000000000000000000000000000000610521565b610f457f00000000000000000000000000000000000000000000000000000000000000007f00000000000000000000000000000000000000000000000000000000000000007f00000000000000000000000000000000000000000000000000000000000000006114dc565b9050610521565b610f568282611516565b60008281526001602052604090206105b59082611599565b610f76610788565b610f925760405162461bcd60e51b815260040161062590611dd9565b6007805460ff191690557f5db9ee0a495bf2e6ff9c91a7834c1ba4fdd244a5e8aa4e537bd38aeae4b073aa610fc5610ba9565b604051610fd29190611bea565b60405180910390a1565b6001600160a01b0382166110025760405162461bcd60e51b815260040161062590612361565b61100e600083836112db565b806004600082825461102091906123f0565b90915550506001600160a01b0382166000908152600260205260408120805483929061104d9084906123f0565b90915550506040516001600160a01b038316906000907fddf252ad1be2c89b69c2b068fc378daa952ba7f163c4a11628f55a4df523b3ef90611090908590611c09565b60405180910390a3610638600083836112e6565b6001600160a01b0382166110ca5760405162461bcd60e51b815260040161062590612177565b6110d6826000836112db565b6001600160a01b0382166000908152600260205260409020548181101561110f5760405162461bcd60e51b815260040161062590611e07565b6001600160a01b038316600090815260026020526040812083830390556004805484929061113e908490612427565b90915550506040516000906001600160a01b038516907fddf252ad1be2c89b69c2b068fc378daa952ba7f163c4a11628f55a4df523b3ef90611181908690611c09565b60405180910390a36105b5836000846112e6565b5490565b6111a1610788565b156111be5760405162461bcd60e51b81526004016106259061207e565b6007805460ff191660011790557f62e78cea01bee320cd4e420270b5ea74000d11b0c9f74754ebdbfc544b05a258610fc5610ba9565b600061083f83836115ae565b600061048982611195565b6001600160a01b038116600090815260086020526040812061122c81611195565b9150611237816115e6565b50919050565b600061048961124a610e55565b836115ef565b600080600061126187878787611622565b9150915061126e81611702565b5095945050505050565b6000611284838361182f565b6112ba57508154600181810184556000848152602080822090930184905584548482528286019093526040902091909155610542565b506000610542565b6001600160e01b031981166301ffc9a760e01b14919050565b6105b5838383611847565b6001600160a01b03831660009081526009602052604090205460ff161561131f5760405162461bcd60e51b81526004016106259061229e565b6105b58383836105b5565b60606000611339836002612408565b6113449060026123f0565b67ffffffffffffffff81111561136a57634e487b7160e01b600052604160045260246000fd5b6040519080825280601f01601f191660200182016040528015611394576020820181803683370190505b509050600360fc1b816000815181106113bd57634e487b7160e01b600052603260045260246000fd5b60200101906001600160f81b031916908160001a905350600f60fb1b816001815181106113fa57634e487b7160e01b600052603260045260246000fd5b60200101906001600160f81b031916908160001a905350600061141e846002612408565b6114299060016123f0565b90505b60018111156114bd576f181899199a1a9b1b9c1cb0b131b232b360811b85600f166010811061146b57634e487b7160e01b600052603260045260246000fd5b1a60f81b82828151811061148f57634e487b7160e01b600052603260045260246000fd5b60200101906001600160f81b031916908160001a90535060049490941c936114b68161246a565b905061142c565b50831561083f5760405162461bcd60e51b815260040161062590611cfa565b600083838346306040516020016114f7959493929190611c46565b6040516020818303038152906040528051906020012090509392505050565b6115208282610846565b15610638576000828152602081815260408083206001600160a01b03851684529091529020805460ff19169055611555610ba9565b6001600160a01b0316816001600160a01b0316837ff6391f5c32d9c69d2a47ea670b442974b53935d1edc7fd64eb21e047a839171b60405160405180910390a45050565b600061083f836001600160a01b038416611852565b60008260000182815481106115d357634e487b7160e01b600052603260045260246000fd5b9060005260206000200154905092915050565b80546001019055565b60008282604051602001611604929190611b5a565b60405160208183030381529060405280519060200120905092915050565b6000807f7fffffffffffffffffffffffffffffff5d576e7357a4501ddfe92f46681b20a083111561165957506000905060036116f9565b8460ff16601b1415801561167157508460ff16601c14155b1561168257506000905060046116f9565b6000600187878787604051600081526020016040526040516116a79493929190611c72565b6020604051602081039080840390855afa1580156116c9573d6000803e3d6000fd5b5050604051601f1901519150506001600160a01b0381166116f2576000600192509250506116f9565b9150600090505b94509492505050565b600081600481111561172457634e487b7160e01b600052602160045260246000fd5b141561172f5761072b565b600181600481111561175157634e487b7160e01b600052602160045260246000fd5b141561176f5760405162461bcd60e51b815260040161062590611cc3565b600281600481111561179157634e487b7160e01b600052602160045260246000fd5b14156117af5760405162461bcd60e51b815260040161062590611e49565b60038160048111156117d157634e487b7160e01b600052602160045260246000fd5b14156117ef5760405162461bcd60e51b815260040161062590611fd3565b600481600481111561181157634e487b7160e01b600052602160045260246000fd5b141561072b5760405162461bcd60e51b8152600401610625906120a8565b60009081526001919091016020526040902054151590565b6105b583838361196f565b60008181526001830160205260408120548015611965576000611876600183612427565b855490915060009061188a90600190612427565b905081811461190b5760008660000182815481106118b857634e487b7160e01b600052603260045260246000fd5b90600052602060002001549050808760000184815481106118e957634e487b7160e01b600052603260045260246000fd5b6000918252602080832090910192909255918252600188019052604090208390555b855486908061192a57634e487b7160e01b600052603160045260246000fd5b600190038181906000526020600020016000905590558560010160008681526020019081526020016000206000905560019350505050610542565b6000915050610542565b61197a8383836105b5565b611982610788565b156105b55760405162461bcd60e51b815260040161062590612398565b80356001600160a01b038116811461048c57600080fd5b6000602082840312156119c7578081fd5b61083f8261199f565b600080604083850312156119e2578081fd5b6119eb8361199f565b91506119f96020840161199f565b90509250929050565b600080600060608486031215611a16578081fd5b611a1f8461199f565b9250611a2d6020850161199f565b9150604084013590509250925092565b600080600080600080600060e0888a031215611a57578283fd5b611a608861199f565b9650611a6e6020890161199f565b95506040880135945060608801359350608088013560ff81168114611a91578384fd5b9699959850939692959460a0840135945060c09093013592915050565b60008060408385031215611ac0578182fd5b611ac98361199f565b946020939093013593505050565b600060208284031215611ae8578081fd5b5035919050565b60008060408385031215611b01578182fd5b823591506119f96020840161199f565b60008060408385031215611b23578182fd5b50508035926020909101359150565b600060208284031215611b43578081fd5b81356001600160e01b03198116811461083f578182fd5b61190160f01b81526002810192909252602282015260420190565b60007f416363657373436f6e74726f6c3a206163636f756e742000000000000000000082528351611bad81601785016020880161243e565b7001034b99036b4b9b9b4b733903937b6329607d1b6017918401918201528351611bde81602884016020880161243e565b01602801949350505050565b6001600160a01b0391909116815260200190565b901515815260200190565b90815260200190565b9586526001600160a01b0394851660208701529290931660408501526060840152608083019190915260a082015260c00190565b9485526020850193909352604084019190915260608301526001600160a01b0316608082015260a00190565b93845260ff9290921660208401526040830152606082015260800190565b6000602082528251806020840152611caf81604085016020870161243e565b601f01601f19169190910160400192915050565b60208082526018908201527f45434453413a20696e76616c6964207369676e61747572650000000000000000604082015260600190565b6020808252818101527f537472696e67733a20686578206c656e67746820696e73756666696369656e74604082015260600190565b60208082526023908201527f45524332303a207472616e7366657220746f20746865207a65726f206164647260408201526265737360e81b606082015260800190565b60208082526041908201527f45524332304d696e7465724275726e65725061757365723a206d75737420686160408201527f76652070617573657220726f6c6520746f2073757370656e64206163636f756e6060820152601d60fa1b608082015260a00190565b60208082526014908201527314185d5cd8589b194e881b9bdd081c185d5cd95960621b604082015260600190565b60208082526022908201527f45524332303a206275726e20616d6f756e7420657863656564732062616c616e604082015261636560f01b606082015260800190565b6020808252601f908201527f45434453413a20696e76616c6964207369676e6174757265206c656e67746800604082015260600190565b60208082526039908201527f45524332305072657365744d696e7465725061757365723a206d75737420686160408201527f76652070617573657220726f6c6520746f20756e706175736500000000000000606082015260800190565b60208082526022908201527f45524332303a20617070726f766520746f20746865207a65726f206164647265604082015261737360f01b606082015260800190565b6020808252601d908201527f45524332303a20696e73756666696369656e7420616c6c6f77616e6365000000604082015260600190565b6020808252601d908201527f45524332305065726d69743a206578706972656420646561646c696e65000000604082015260600190565b60208082526026908201527f45524332303a207472616e7366657220616d6f756e7420657863656564732062604082015265616c616e636560d01b606082015260800190565b60208082526022908201527f45434453413a20696e76616c6964207369676e6174757265202773272076616c604082015261756560f01b606082015260800190565b60208082526043908201527f45524332304d696e7465724275726e65725061757365723a206d75737420686160408201527f76652070617573657220726f6c6520746f20756e73757370656e64206163636f6060820152621d5b9d60ea1b608082015260a00190565b60208082526010908201526f14185d5cd8589b194e881c185d5cd95960821b604082015260600190565b60208082526022908201527f45434453413a20696e76616c6964207369676e6174757265202776272076616c604082015261756560f01b606082015260800190565b6020808252601e908201527f45524332305065726d69743a20696e76616c6964207369676e61747572650000604082015260600190565b60208082526036908201527f45524332305072657365744d696e7465725061757365723a206d7573742068616040820152751d99481b5a5b9d195c881c9bdb19481d1bc81b5a5b9d60521b606082015260800190565b60208082526021908201527f45524332303a206275726e2066726f6d20746865207a65726f206164647265736040820152607360f81b606082015260800190565b60208082526025908201527f45524332303a207472616e736665722066726f6d20746865207a65726f206164604082015264647265737360d81b606082015260800190565b60208082526024908201527f45524332303a20617070726f76652066726f6d20746865207a65726f206164646040820152637265737360e01b606082015260800190565b60208082526037908201527f45524332305072657365744d696e7465725061757365723a206d75737420686160408201527f76652070617573657220726f6c6520746f207061757365000000000000000000606082015260800190565b6020808252601590820152746163636f756e742069732073757370656e6465642160581b604082015260600190565b60208082526025908201527f45524332303a2064656372656173656420616c6c6f77616e63652062656c6f77604082015264207a65726f60d81b606082015260800190565b6020808252602f908201527f416363657373436f6e74726f6c3a2063616e206f6e6c792072656e6f756e636560408201526e103937b632b9903337b91039b2b63360891b606082015260800190565b6020808252601f908201527f45524332303a206d696e7420746f20746865207a65726f206164647265737300604082015260600190565b6020808252602a908201527f45524332305061757361626c653a20746f6b656e207472616e736665722077686040820152691a5b19481c185d5cd95960b21b606082015260800190565b60ff91909116815260200190565b60008219821115612403576124036124b6565b500190565b6000816000190483118215151615612422576124226124b6565b500290565b600082821015612439576124396124b6565b500390565b60005b83811015612459578181015183820152602001612441565b83811115610ca55750506000910152565b600081612479576124796124b6565b506000190190565b60028104600182168061249557607f821691505b6020821081141561123757634e487b7160e01b600052602260045260246000fd5b634e487b7160e01b600052601160045260246000fdfe65d7a28e3265b37a6474929f336521b332c1681b933f6cb9f3376673440d862aa26469706673582212208c40635e7b9ff30007fbc73714a75ee624e545a635b7c17656f4528fbbd2b21d64736f6c63430008000033",
  "devdoc": {
    "details": "{ERC20} token, including:  - ability for holders to burn (destroy) their tokens  - a minter role that allows for token minting (creation)  - a pauser role that allows to stop all token transfers  - EIP712 permit This contract uses {AccessControl} to lock permissioned functions using the different roles - head to its documentation for details. The account that deploys the contract will be granted the minter and pauser roles, as well as the default admin role, which will let it grant both minter and pauser roles to aother accounts",
    "kind": "dev",
    "methods": {
      "DOMAIN_SEPARATOR()": {
        "details": "See {IERC20Permit-DOMAIN_SEPARATOR}."
      },
      "allowance(address,address)": {
        "details": "See {IERC20-allowance}."
      },
      "approve(address,uint256)": {
        "details": "See {IERC20-approve}. NOTE: If `amount` is the maximum `uint256`, the allowance is not updated on `transferFrom`. This is semantically equivalent to an infinite approval. Requirements: - `spender` cannot be the zero address."
      },
      "balanceOf(address)": {
        "details": "See {IERC20-balanceOf}."
      },
      "burn(uint256)": {
        "details": "Destroys `amount` tokens from the caller. See {ERC20-_burn}."
      },
      "burnFrom(address,uint256)": {
        "details": "Destroys `amount` tokens from `account`, deducting from the caller's allowance. See {ERC20-_burn} and {ERC20-allowance}. Requirements: - the caller must have allowance for ``accounts``'s tokens of at least `amount`."
      },
      "decimals()": {
        "details": "Returns the number of decimals used to get its user representation. For example, if `decimals` equals `2`, a balance of `505` tokens should be displayed to a user as `5.05` (`505 / 10 ** 2`). Tokens usually opt for a value of 18, imitating the relationship between Ether and Wei. This is the value {ERC20} uses, unless this function is overridden; NOTE: This information is only used for _display_ purposes: it in no way affects any of the arithmetic of the contract, including {IERC20-balanceOf} and {IERC20-transfer}."
      },
      "decreaseAllowance(address,uint256)": {
        "details": "Atomically decreases the allowance granted to `spender` by the caller. This is an alternative to {approve} that can be used as a mitigation for problems described in {IERC20-approve}. Emits an {Approval} event indicating the updated allowance. Requirements: - `spender` cannot be the zero address. - `spender` must have allowance for the caller of at least `subtractedValue`."
      },
      "getRoleAdmin(bytes32)": {
        "details": "Returns the admin role that controls `role`. See {grantRole} and {revokeRole}. To change a role's admin, use {_setRoleAdmin}."
      },
      "getRoleMember(bytes32,uint256)": {
        "details": "Returns one of the accounts that have `role`. `index` must be a value between 0 and {getRoleMemberCount}, non-inclusive. Role bearers are not sorted in any particular way, and their ordering may change at any point. WARNING: When using {getRoleMember} and {getRoleMemberCount}, make sure you perform all queries on the same block. See the following https://forum.openzeppelin.com/t/iterating-over-elements-on-enumerableset-in-openzeppelin-contracts/2296[forum post] for more information."
      },
      "getRoleMemberCount(bytes32)": {
        "details": "Returns the number of accounts that have `role`. Can be used together with {getRoleMember} to enumerate all bearers of a role."
      },
      "grantRole(bytes32,address)": {
        "details": "Grants `role` to `account`. If `account` had not been already granted `role`, emits a {RoleGranted} event. Requirements: - the caller must have ``role``'s admin role."
      },
      "hasRole(bytes32,address)": {
        "details": "Returns `true` if `account` has been granted `role`."
      },
      "increaseAllowance(address,uint256)": {
        "details": "Atomically increases the allowance granted to `spender` by the caller. This is an alternative to {approve} that can be used as a mitigation for problems described in {IERC20-approve}. Emits an {Approval} event indicating the updated allowance. Requirements: - `spender` cannot be the zero address."
      },
      "mint(address,uint256)": {
        "details": "Creates `amount` new tokens for `to`. See {ERC20-_mint}. Requirements: - the caller must have the `MINTER_ROLE`."
      },
      "name()": {
        "details": "Returns the name of the token."
      },
      "nonces(address)": {
        "details": "See {IERC20Permit-nonces}."
      },
      "pause()": {
        "details": "Pauses all token transfers. See {ERC20Pausable} and {Pausable-_pause}. Requirements: - the caller must have the `PAUSER_ROLE`."
      },
      "paused()": {
        "details": "Returns true if the contract is paused, and false otherwise."
      },
      "permit(address,address,uint256,uint256,uint8,bytes32,bytes32)": {
        "details": "See {IERC20Permit-permit}."
      },
      "renounceRole(bytes32,address)": {
        "details": "Revokes `role` from the calling account. Roles are often managed via {grantRole} and {revokeRole}: this function's purpose is to provide a mechanism for accounts to lose their privileges if they are compromised (such as when a trusted device is misplaced). If the calling account had been revoked `role`, emits a {RoleRevoked} event. Requirements: - the caller must be `account`."
      },
      "revokeRole(bytes32,address)": {
        "details": "Revokes `role` from `account`. If `account` had been granted `role`, emits a {RoleRevoked} event. Requirements: - the caller must have ``role``'s admin role."
      },
      "supportsInterface(bytes4)": {
        "details": "See {IERC165-supportsInterface}."
      },
      "symbol()": {
        "details": "Returns the symbol of the token, usually a shorter version of the name."
      },
      "totalSupply()": {
        "details": "See {IERC20-totalSupply}."
      },
      "transfer(address,uint256)": {
        "details": "See {IERC20-transfer}. Requirements: - `to` cannot be the zero address. - the caller must have a balance of at least `amount`."
      },
      "transferFrom(address,address,uint256)": {
        "details": "See {IERC20-transferFrom}. Emits an {Approval} event indicating the updated allowance. This is not required by the EIP. See the note at the beginning of {ERC20}. NOTE: Does not update the allowance if the current allowance is the maximum `uint256`. Requirements: - `from` and `to` cannot be the zero address. - `from` must have a balance of at least `amount`. - the caller must have allowance for ``from``'s tokens of at least `amount`."
      },
      "unpause()": {
        "details": "Unpauses all token transfers. See {ERC20Pausable} and {Pausable-_unpause}. Requirements: - the caller must have the `PAUSER_ROLE`."
      }
    },
    "version": 1
  },
  "userdoc": {
    "kind": "user",
    "methods": {},
    "version": 1
  },
  "storageLayout": {
    "storage": [
      {
        "astId": 24,
        "contract": "contracts/ERC20MinterBurnerPauser.sol:ERC20MinterBurnerPauser",
        "label": "_roles",
        "offset": 0,
        "slot": "0",
        "type": "t_mapping(t_bytes32,t_struct(RoleData)19_storage)"
      },
      {
        "astId": 327,
        "contract": "contracts/ERC20MinterBurnerPauser.sol:ERC20MinterBurnerPauser",
        "label": "_roleMembers",
        "offset": 0,
        "slot": "1",
        "type": "t_mapping(t_bytes32,t_struct(AddressSet)2944_storage)"
      },
      {
        "astId": 639,
        "contract": "contracts/ERC20MinterBurnerPauser.sol:ERC20MinterBurnerPauser",
        "label": "_balances",
        "offset": 0,
        "slot": "2",
        "type": "t_mapping(t_address,t_uint256)"
      },
      {
        "astId": 645,
        "contract": "contracts/ERC20MinterBurnerPauser.sol:ERC20MinterBurnerPauser",
        "label": "_allowances",
        "offset": 0,
        "slot": "3",
        "type": "t_mapping(t_address,t_mapping(t_address,t_uint256))"
      },
      {
        "astId": 647,
        "contract": "contracts/ERC20MinterBurnerPauser.sol:ERC20MinterBurnerPauser",
        "label": "_totalSupply",
        "offset": 0,
        "slot": "4",
        "type": "t_uint256"
      },
      {
        "astId": 649,
        "contract": "contracts/ERC20MinterBurnerPauser.sol:ERC20MinterBurnerPauser",
        "label": "_name",
        "offset": 0,
        "slot": "5",
        "type": "t_string_storage"
      },
      {
        "astId": 651,
        "contract": "contracts/ERC20MinterBurnerPauser.sol:ERC20MinterBurnerPauser",
        "label": "_symbol",
        "offset": 0,
        "slot": "6",
        "type": "t_string_storage"
      },
      {
        "astId": 549,
        "contract": "contracts/ERC20MinterBurnerPauser.sol:ERC20MinterBurnerPauser",
        "label": "_paused",
        "offset": 0,
        "slot": "7",
        "type": "t_bool"
      },
      {
        "astId": 1418,
        "contract": "contracts/ERC20MinterBurnerPauser.sol:ERC20MinterBurnerPauser",
        "label": "_nonces",
        "offset": 0,
        "slot": "8",
        "type": "t_mapping(t_address,t_struct(Counter)1764_storage)"
      },
      {
        "astId": 3244,
        "contract": "contracts/ERC20MinterBurnerPauser.sol:ERC20MinterBurnerPauser",
        "label": "suspended",
        "offset": 0,
        "slot": "9",
        "type": "t_mapping(t_address,t_bool)"
      }
    ],
    "types": {
      "t_address": {
        "encoding": "inplace",
        "label": "address",
        "numberOfBytes": "20"
      },
      "t_array(t_bytes32)dyn_storage": {
        "base": "t_bytes32",
        "encoding": "dynamic_array",
        "label": "bytes32[]",
        "numberOfBytes": "32"
      },
      "t_bool": {
        "encoding": "inplace",
        "label": "bool",
        "numberOfBytes": "1"
      },
      "t_bytes32": {
        "encoding": "inplace",
        "label": "bytes32",
        "numberOfBytes": "32"
      },
      "t_mapping(t_address,t_bool)": {
        "encoding": "mapping",
        "key": "t_address",
        "label": "mapping(address => bool)",
        "numberOfBytes": "32",
        "value": "t_bool"
      },
      "t_mapping(t_address,t_mapping(t_address,t_uint256))": {
        "encoding": "mapping",
        "key": "t_address",
        "label": "mapping(address => mapping(address => uint256))",
        "numberOfBytes": "32",
        "value": "t_mapping(t_address,t_uint256)"
      },
      "t_mapping(t_address,t_struct(Counter)1764_storage)": {
        "encoding": "mapping",
        "key": "t_address",
        "label": "mapping(address => struct Counters.Counter)",
        "numberOfBytes": "32",
        "value": "t_struct(Counter)1764_storage"
      },
      "t_mapping(t_address,t_uint256)": {
        "encoding": "mapping",
        "key": "t_address",
        "label": "mapping(address => uint256)",
        "numberOfBytes": "32",
        "value": "t_uint256"
      },
      "t_mapping(t_bytes32,t_struct(AddressSet)2944_storage)": {
        "encoding": "mapping",
        "key": "t_bytes32",
        "label": "mapping(bytes32 => struct EnumerableSet.AddressSet)",
        "numberOfBytes": "32",
        "value": "t_struct(AddressSet)2944_storage"
      },
      "t_mapping(t_bytes32,t_struct(RoleData)19_storage)": {
        "encoding": "mapping",
        "key": "t_bytes32",
        "label": "mapping(bytes32 => struct AccessControl.RoleData)",
        "numberOfBytes": "32",
        "value": "t_struct(RoleData)19_storage"
      },
      "t_mapping(t_bytes32,t_uint256)": {
        "encoding": "mapping",
        "key": "t_bytes32",
        "label": "mapping(bytes32 => uint256)",
        "numberOfBytes": "32",
        "value": "t_uint256"
      },
      "t_string_storage": {
        "encoding": "bytes",
        "label": "string",
        "numberOfBytes": "32"
      },
      "t_struct(AddressSet)2944_storage": {
        "encoding": "inplace",
        "label": "struct EnumerableSet.AddressSet",
        "members": [
          {
            "astId": 2943,
            "contract": "contracts/ERC20MinterBurnerPauser.sol:ERC20MinterBurnerPauser",
            "label": "_inner",
            "offset": 0,
            "slot": "0",
            "type": "t_struct(Set)2643_storage"
          }
        ],
        "numberOfBytes": "64"
      },
      "t_struct(Counter)1764_storage": {
        "encoding": "inplace",
        "label": "struct Counters.Counter",
        "members": [
          {
            "astId": 1763,
            "contract": "contracts/ERC20MinterBurnerPauser.sol:ERC20MinterBurnerPauser",
            "label": "_value",
            "offset": 0,
            "slot": "0",
            "type": "t_uint256"
          }
        ],
        "numberOfBytes": "32"
      },
      "t_struct(RoleData)19_storage": {
        "encoding": "inplace",
        "label": "struct AccessControl.RoleData",
        "members": [
          {
            "astId": 16,
            "contract": "contracts/ERC20MinterBurnerPauser.sol:ERC20MinterBurnerPauser",
            "label": "members",
            "offset": 0,
            "slot": "0",
            "type": "t_mapping(t_address,t_bool)"
          },
          {
            "astId": 18,
            "contract": "contracts/ERC20MinterBurnerPauser.sol:ERC20MinterBurnerPauser",
            "label": "adminRole",
            "offset": 0,
            "slot": "1",
            "type": "t_bytes32"
          }
        ],
        "numberOfBytes": "64"
      },
      "t_struct(Set)2643_storage": {
        "encoding": "inplace",
        "label": "struct EnumerableSet.Set",
        "members": [
          {
            "astId": 2638,
            "contract": "contracts/ERC20MinterBurnerPauser.sol:ERC20MinterBurnerPauser",
            "label": "_values",
            "offset": 0,
            "slot": "0",
            "type": "t_array(t_bytes32)dyn_storage"
          },
          {
            "astId": 2642,
            "contract": "contracts/ERC20MinterBurnerPauser.sol:ERC20MinterBurnerPauser",
            "label": "_indexes",
            "offset": 0,
            "slot": "1",
            "type": "t_mapping(t_bytes32,t_uint256)"
          }
        ],
        "numberOfBytes": "64"
      },
      "t_uint256": {
        "encoding": "inplace",
        "label": "uint256",
        "numberOfBytes": "32"
      }
    }
  }
}